S01B00006578616D696E6174696F6E7370726F6A656B742E73726563FA
S214080000B8A80720FD230800F9230800F9230800EC
S214080010F9230800F9230800F92308000000000067
S214080020000000000000000000000000E9090800C9
S214080030F923080000000000650A0800A10A080065
S214080040F9230800F9230800F9230800F923080013
S214080050F9230800F9230800F9230800F923080003
S214080060F9230800F92308000000000069220800A8
S2140800707D22080091220800A52208000000000042
S21408008000000000F9230800F9230800F9230800F7
S214080090F9230800F9230800F9230800F9230800C3
S2140800A0F923080000000000F9230800F9230800D7
S2140800B0F9230800F9230800F9230800F9230800A3
S2140800C0F9230800F9230800F9230800F923080093
S2140800D0F9230800F9230800F9230800F923080083
S2140800E0F9230800F9230800F9230800F923080073
S2140800F0F923080010B5054C237833B9044B13B11F
S2140801000448AFF300800123237010BD780507204C
S214080110000000003C370800084B10B51BB1084823
S2140801200849AFF300800848036803B910BD074BB9
S214080130002BFBD0BDE81040184700BF00000000A9
S2140801403C3708007C0507203C3708000000000004
S21408015038B525200E4B98470E4C20460E490F4AB8
S21408016000230F4DA847204600210A460B460D4D92
S214080170A847204610210C4B984720460A210B4BCF
S2140801809847204600210A46094B984738BD00BFC5
S214080190A523080000000C40007A030A002D310150
S2140801A0450208009902080079020800C102080002
S2140801B08902080070B582B0054B984702AC24F84F
S2140801C0020D3226034D20463146A847FBE700BFFE
S2140801D0A9140800F91608002DE9F04184B0002497
S2140801E00094019402940394DFF854800F4F104E45
S2140801F068461021C0473D686846B0472853023411
S214080200C82CF5D10024094F0A4E0B4D3B68185BE5
S21408021069460A22B0476846A847084B98470234FA
S214080220C82CF3D104B0BDE8F08100BF2C0107202C
S21408023059300800E1300800E10408000D05080000
S2140802402905080030B4012404600024446040F204
S2140802500225C0F82051C0F80441C0F8144145688A
S2140802602B435200B1FBF2F14A1E120292B213431C
S2140802704360204630BC7047436823F01003436051
S214080280436819434160704743681943D201D2B2A4
S21408029011434160704700BF10B444682243090602
S2140802A001F070610A431B0703F040531343436091
S2140802B05DF8044B704700BF02230360704700BF19
S2140802C001238B4003617047006A7047006B7047D4
S2140802D0F0B48CB007460E4601AC114D0FCD0FC4D6
S2140802E00FCD0FC495E8070084E8070001AA002090
S2140802F052F8043BB6FBF3F3B3FBF7F3B3F5807F92
S21408030005D901300B28F3D14FF6FF7005E00A280F
S21408031094BF43EA00204FF6FF700CB0F0BC70475D
S2140803207835080070B506460C46086840B18968F6
S2140803300E4B984705464FF6FF73984201D10EE0DC
S2140803400025606840B1A168084B98474FF6FF73D0
S214080350984207D045EA00453560002070BD4FF644
S214080360FF7070BD4FF6FF7070BD00BFD102080069
S21408037070B40B688A8A4C6804F00F0422430C8910
S21408038022438C7A42EA44228C7D42EA0442CC7D9F
S21408039042EA44420C7E42EA844200EB4314C4F824
S2140803A00022CA68C4F804220A69C4F80C228A7DA6
S2140803B03AB18C8B4A8B42EA044200EB4314C4F8E9
S2140803C01822846C4FF001129A40D24302EA0405C0
S2140803D0CC7F04FA03F68C7F9C4044EA06442C4300
S2140803E08464446C144091F8212002FA03F591F8CD
S2140803F020209A4042EA05422243426401229A405B
S21408040091F822401CB1046A1443046203E0046AAB
S21408041024EA0204046291F82440012C846E0CBF7E
S21408042014439443846691F82540012C846E0CBFCF
S21408043044EA024224EA02428266032B0BD8C46EC0
S214080440DD00FF22AA4024EA020291F82330AB40DE
S2140804501343C3660CE0043B026FDB00FF249C409A
S21408046022EA040491F8232002FA03F323430367DD
S214080470002070BC704700BF10B40C680B6993422C
S21408048006D3CA6000EB4410C0F80822002001E03A
S2140804904FF6FF705DF8044B704700BF01238B4092
S2140804A0436070470C4BB3FBF0F00C4B18604FF4EE
S2140804B000621C3B1A605022043B1A6003F5C063B6
S2140804C04FF480725A665A655A62C3F880201A6FCB
S2140804D022F480721A677047D01B500020080E401E
S2140804E0027872B110B4074C0749236803F0020378
S2140804F0002BFDD00A6010F8012F002AF5D15DF810
S214080500044B704714080E401C080E40044B1B682A
S21408051003F00203002BFDD00A22024B1A60704734
S21408052014080E401C080E4003780A2B1AD000291F
S21408053018DD10B442180D4C0D49236803F001036A
S214080540002BFDD00B7803700A2B06D010F8013F5D
S2140805500A2B02D09042F0D11046002303705DF8B3
S214080560044B704700230370704700BF14080E4002
S21408057018080E4070B584B02B4B98472B4B9847FD
S2140805800B202B4CA0470C20A0470D20A0470E2080
S214080590A047284B9847284B98474FF4E130274BFD
S2140805A09847274B9847274B4FF080621A61C3F845
S2140805B0A0204FF480421A61C3F8A020224B984727
S2140805C0012000210322214B9847214B186020B1B7
S2140805D000210A460B461F4CA0470123009300241F
S2140805E00194029403941C481C494FF40072234655
S2140805F01B4DA847022600960194029403941948B6
S21408060019494FF400722346A847009601940294AD
S2140806100394164816494FF400722346A847154B0C
S2140806209847204604B070BD2D1F0800911F08008B
S214080630A52308007906080051010800A50408004B
S214080640C506080000100E40D90108000D0E080067
S21408065030010720650E0800B5010800A43508001B
S214080660291208004D070800AC350800E507080001
S214080670B03508002D140800094B4FF080625A6107
S214080680C3F8A020074A4FF480011161C2F8A010F1
S21408069051634FF000621A61C3F8A0201A637047CE
S2140806A000100E4000120E4008B5024602480349E4
S2140806B0034B984708BD00BF004009406006072066
S2140806C07904080030B585B02420154B984728BB18
S2140806D0144B019300240294134B0393134D28469E
S2140806E001A9134B984713490C818C720B234B6056
S2140806F040F2E7330B61CC600C6028460E4B9847F7
S2140807000E484FF080514FF480320D4B98472846DC
S21408071021460C4B984720460B4B984705B030BDF2
S214080720A5230800583E0F0000BD010500400940FB
S21408073025030800600607207103080000100E4015
S214080740012008009D040800A90608002DE9F047C6
S21408075082B0184BB3F80090174B9847ADF80600D0
S214080760164C4FF08066B046154D164FC4F83080CC
S214080770286800214FF6FF720B46B84798B1DFF895
S2140807805CA0114B188851460A22104B98475046D1
S2140807900F4B98470F4B9847286800210A460B4688
S2140807A0DFF83CC0E0470DF1060049460A4B98477B
S2140807B06663DBE734010720A914080000100E4022
S2140807C0300107201D1008005C060720E1300800ED
S2140807D0E10408000D050800F91608008806072039
S2140807E0650E08002DE9F04F87B0344B1B8803933D
S2140807F0334B9847ADF8160000239A464FF48043CB
S2140808000293304F304B029A1A633048304B984761
S2140808102E48B84710F0807FFAD02C482D4B9847C2
S21408082085B22D4B186800214FF6FF720B462B4CED
S214080830A04700282BD02A4B1D80274B186800217C
S2140808400A460B46274CA04721E055F804ABB047AC
S214080850CDE900015046B0470022234BC047024668
S2140808600B46DDE90001C847D847A542EDD18246C8
S2140808701E4B984780B21E4B9847134B4FF4804246
S2140808805A630DF1160003991A4B9847BAE71A4CA3
S214080890A368E3606368A360236863602846174B11
S2140808A09847206025461034154EDFF85880DFF844
S2140808B05890DFF858B05046C7E700BF3401072005
S2140808C0A9140800CD02080000100E4000000C40D5
S2140808D0B9020800C9020800300107201D100800E8
S2140808E05C060720650E08000000D03F1930080097
S2140808F0A9060800F916080090060720692F0800C0
S2140809009128080039290800D52508005D2D08001B
S21408091000F1080343604FF6FF720281C36003616B
S21408092000230360704700BF00230361704700BFC1
S21408093043685A684A6042688A605A689160596093
S21408094041600861036801330360704710B40C887F
S2140809504FF6FF739C4201D102690CE000F10802D1
S214080960C3681B889BB29C4205D3526853681B8891
S2140809709BB29C42F9D253684B6099608A6051607A
S21408098008610368013303605DF8044B704700BFD5
S214080990436882689A60836842685A6003695A683E
S2140809A0824204BF82685A60002202611A68013ACD
S2140809B01A601868704700BF03480068006880F32C
S2140809C0088862B600DF00BF08ED00E04FF08073CD
S2140809D040F8043C40F8081C002340F80C3C40F85B
S2140809E0202C4038704700BF064B19680868B0E8E6
S2140809F0F00F80F309884FF0000080F311884EF05E
S214080A000D0E7047DC8707204FF08052014B1A60A6
S214080A10704700BF04ED00E0EFF311804FF0A0012F
S214080A2081F311887047002008B5034B9847034A9E
S214080A3013680133136008BD190A08003801072037
S214080A4080F31188704700BF08B5044A1368013B55
S214080A50136013B90020024B984708BD38010720D9
S214080A60410A0800EFF309800C4B1A6820E9F00FDA
S214080A7010602DE908404FF0A00080F3118800F0C0
S214080A80C9FE4FF0000080F31188BDE808401968D9
S214080A900868B0E8F00F80F309887047DC870720FD
S214080AA008B54FF08052054B1A60054B9847054B22
S214080AB098470020044B984708BD00BF04ED00E0A7
S214080AC0190A0800C9140800410A0800034A044B1A
S214080AD01A600722043B1A60704700BF1F480100CF
S214080AE014E000E010B5094B1A6842F470021A6068
S214080AF01A6842F070421A60054B98470024054B66
S214080B001C60054B9847204610BD00BF20ED00E04E
S214080B10CD0A080038010720B9090800134A00E082
S214080B201A4613688342FBD330B411465468151925
S214080B30854203D1686804445460104642688418A5
S214080B409C420CD10A4B1B689C4206D063681A4428
S214080B5042600B681B68036002E0046000E0036004
S214080B60814218BF086030BC704700BFA4860720C3
S214080B70A086072038B50446294B9847294B1B689A
S214080B809BB9294A294B13600021516047F6F07239
S214080B909818244D286047F6F475595199505A60AC
S214080BA01860234A1368103B1360002C2ED004F1FB
S214080BB0100212F0070F1CBF22F007020832511E5F
S214080BC047F6FE73994223D817490C6801E0214678
S214080BD01C4663689A4202D92368002BF7D1114B4A
S214080BE01B689C4216D00D68103523680B60636836
S214080BF09B1A202B04D9A018436062600D4B9847B7
S214080C000B4A136861685B1A136004E0002502E06B
S214080C10002500E00025084B9847284638BD00BF49
S214080C2099140800A0860720A4860720A006072097
S214080C303C0107201D0B0800F515080080B110B50B
S214080C400446084B9847084A116854F80C3C0B446D
S214080C501360A4F11000054B9847054B984710BD44
S214080C60704700BF991408003C0107201D0B0800B8
S214080C70F515080010B50446036C3BB903681BBBA2
S214080C804068134B9847002363601DE06AB9806884
S214080C901A46104B9847A268236C1344A3606268F0
S214080CA0934211D32368A3600EE0C0681A46094B26
S214080CB09847236C5B42E2681A44E26021688A42DD
S214080CC002D262681344E360A36B0133A36310BDCA
S214080CD0551B0800E530080038B50346006858B1CB
S214080CE01A6CDC681444DC605D68AC4228BFD860C7
S214080CF00846D968014B984738BD00BFE53008005C
S214080D00F8B504461E4B9847A36C002B13DD636AA0
S214080D101BB910E0636A23B90DE004F12406194DE7
S214080D20194F3046A84700B1B847A36C013BA364E7
S214080D30A36C002BEEDC4FF0FF33A364134B9847ED
S214080D400F4B9847636C002B13DD23691BB910E023
S214080D50236923B90DE004F110060A4D0A4F304600
S214080D60A84700B1B847636C013B6364636C002B0B
S214080D70EEDC4FF0FF336364044B9847F8BD00BFC2
S214080D80290A0800651908009D1A0800490A08007B
S214080D9038B518B9174B984700BFFDE70D46044607
S214080DA0154B98472268216CE36B03FB01F3D018B8
S214080DB060600020A063A2605B1A1344E3604FF0F3
S214080DC0FF336364A36455B923697BB104F110004B
S214080DD00A4B9847012809D1094B984706E004F1C1
S214080DE01000084DA84704F12400A847064B98476A
S214080DF0012038BD190A0800290A080065190800E4
S214080E00090A080011090800490A0800F8B5A0B13F
S214080E100D461746064650200E4B9847044660B1C6
S214080E2005FB06F001300B4B9847206040B920467A
S214080E30094B984701E000BFFDE7084B9847FAE7DB
S214080E40E663256420460121054B984784F84D70D3
S214080E502046F8BD750B08003D0C0800190A080066
S214080E60910D08002DE9F04F85B00093ADF80620E7
S214080E7018B93A4B984700BFFDE78A46044629B991
S214080E80036C2BB1354B984700BFFDE7002700E001
S214080E900027334EDFF8F0B0324DB047A26BE36B55
S214080EA09A4212D220465146009A2F4B9847636AB8
S214080EB03BB104F124002D4B9847012801D12C4B57
S214080EC09847284B9847012045E0BDF806301BB9DF
S214080ED0244B984700203EE017B902A8D8470127B8
S214080EE0A847244B9847B047636CB3F1FF3F04BF4D
S214080EF000236364A36CB3F1FF3F04BF0023A3641D
S214080F00A84702A80DF106011B4B9847E8B9B04759
S214080F10D4F83890D4F83C80A847C1450FD104F1DE
S214080F201000BDF80610154B98472046144B9847F6
S214080F30144B98470028B0D10D4B9847ADE720468C
S214080F400F4B98470F4B9847A7E720460C4B9847F8
S214080F500C4B9847002005B0BDE8F08F190A08002A
S214080F60290A0800490A0800750C080065190800CF
S214080F70090A080099140800111A0800B918080088
S214080F80010D0800F5150800E91908002DE9F041DB
S214080F9018B91E4B984700BFFDE70E4615469846FB
S214080FA0044629B9036C1BB1184B984700BFFDE7E8
S214080FB0164B98470746A26BE36B9A4218D2204610
S214080FC031464246124B9847A36CB3F1FF3F0AD10D
S214080FD0636A7BB104F124000E4B984760B16DB18B
S214080FE001242C600BE0A36C0133A364012406E003
S214080FF0002404E0012402E0012400E0012438462D
S214081000054B98472046BDE8F08100BF190A08003E
S214081010750C080065190800410A08002DE9F04F0C
S21408102085B0ADF8062018B9474B984700BFFDE7CE
S21408103089469A46044629B9036C2BB1424B984711
S21408104000BFFDE7002700E00027404EDFF82CB180
S2140810503F4DB047A36B43B3E568204649463D4B32
S2140810609847BAF1000F12D1A36B013BA36323681C
S21408107013B9394B98476060236993B104F110009F
S214081080364B984701280CD1354B984709E0E56060
S214081090636A33B104F12400304B984708B1304BEB
S2140810A098472B4B984701204BE0BDF806301BB9F4
S2140810B0274B9847002044E017B902A8D8470127CD
S2140810C0A847284B9847B047636CB3F1FF3F04BF67
S2140810D000236364A36CB3F1FF3F04BF0023A3643B
S2140810E0A84702A80DF106011F4B984718BBB04742
S2140810F0D4F83880A847B8F1000F16D1236823B96A
S214081100B0476068194B9847A84704F12400BDF813
S2140811100610174B98472046164B9847164B984785
S214081120002896D10E4B984793E72046114B9847D0
S214081130114B98478DE720460E4B98470E4B98471D
S214081140002005B0BDE8F08F190A0800290A080033
S214081150490A0800D90C0800A91A080065190800E9
S214081160090A080099140800111A0800D51A080078
S214081170B9180800010D0800F5150800E919080057
S21408118038B504460D460D4B9847636CB3F1FF3FE0
S21408119004BF00236364A36CB3F1FF3F04BF0023BE
S2140811A0A364074B9847A36B23B904F12400294688
S2140811B0044B98472046044B984738BD290A080030
S2140811C0490A08001D190800010D080010B5044654
S2140811D00F4B1B6898800F4B1B889BB2984207D210
S2140811E00D4B18680A4B196804310C4B984710BD0C
S2140811F00B4B1868064B19680431084B9847094B7F
S2140812001B889BB29C423CBF064B1C8010BD00BF8F
S214081210DC870720F8870720FC8707204D09080089
S214081220C4860720400107202DE9F04F83B00C9FA5
S214081230DDF834800E9E019018B9624B984700BFBF
S214081240FDE7894615469B46092F03D95D4B984707
S21408125000BFFDE750205C4B98470446002800F086
S214081260AB80002E40F0A580A800574B9847206317
S21408127018B92046554B98479EE0A521AA00544B1E
S214081280984705F18045013D236B03EB850323F062
S214081290070504F13400494610224E4B98470023B0
S2140812A084F843303E46092F28BF0926E662E664DE
S2140812B004F104094846DFF86CA1D04704F1180089
S2140812C0D0472461C6F10A06268364622846019937
S2140812D05A46414B9847206010F0070F03D0394B09
S2140812E0984700BFFDE7B8F1000F01D0C8F80040E6
S2140812F03A4B98473A4A136801331360394B1B68D0
S2140813000BBB384B1C601368012B26D1364D05F1F4
S214081310C808364E2846B04714354545FAD1DFF892
S21408132008814046314DA847314E3046A8473148D7
S214081330A8473148A8473148A847314BC3F800802A
S214081340304B1E6009E0304B1B6833B9254B1B68D1
S214081350DB6A9F4224BF234B1C60E06A2B4B1B684A
S214081360984284BF294B1860294A1368636401337E
S2140813701360284B1B68984284BF264B186000EB06
S2140813808000194B03EB80004946234B9847234BB4
S21408139098471D4B1B6843B1124B1B68DB6A9F427C
S2140813A005D91F4B9847012008E0012006E00120D8
S2140813B004E00663304660E74FF0FF3003B0BDE850
S2140813C0F08F00BF190A0800750B08003D0C0800CE
S2140813D0D13108006D320800CD090800290A080036
S2140813E004880720DC870720FC86072011090800E8
S2140813F0E4860720E0870720C4870720B0860720F2
S214081400C4860720FC870720C88607200C88072084
S21408141000880720F886072031090800490A0800CE
S214081420090A080029090800D086072010B584B0E4
S214081430002300930193029303930F480F494FF438
S21408144080720F4CA04701280ED10E4B98470128F2
S2140814500AD10D4B984701220C4B1A6000220C4B00
S2140814601A800C4B984704E018B9074B984700BFFA
S214081470FDE704B010BD00BF91170800D03508007E
S21408148029120800511C0800190A0800C8860720F7
S214081490F8870720E50A0800024A13680133136034
S2140814A0704700BFF487072010B5044B9847044BD5
S2140814B01C88A4B2034B9847204610BD290A08008A
S2140814C0F8870720490A08002DE9F0413D4B1B68BC
S2140814D0002B71D13C4A138801339BB213801388C2
S2140814E09BB203BB394B1B681B681BB1384B98472C
S2140814F000BFFDE7354B1968364A1068186011605A
S21408150035490A6801320A601B681B6823B94FF61A
S214081510FF72324B1A8006E02C4B1B68DB68DB68D0
S2140815209A882E4B1A80284B1A8892B22B4B1B8807
S2140815309BB29A4244D3254B1B681B686BB1234B5E
S2140815401B68DB68DC68A2881F4B1B889BB29A4224
S21408155013D8234D234E244F13E04FF6FF721F4B2C
S2140815601A80BDE8F081194B1B68DB68DC68A28826
S214081570154B1B889BB29A4203D9184B1A80BDE8B4
S214081580F08104F104084046A847A36A13B104F1A1
S2140815901800A847E06A3368984288BF306000EBB6
S2140815A0800007EB80004146104B9847074B1B68A6
S2140815B01B68002BD7D1D0E70D4A13680133136098
S2140815C0BDE8F081F4870720F8870720C48607203F
S2140815D0190A0800FC870720D8870720400107203B
S2140815E091090800F8860720FC86072031090800BC
S2140815F0AC8607202DE9F843304B1B681BB9304BE7
S214081600984700BFFDE72F4B98472C4B1A68013ABE
S2140816101A601B68002B49D12B4B1B6803BB0024A0
S21408162047E0D8F80C30DC6804F11800B84704F135
S21408163004094846B847E06A3368984288BF30606D
S21408164000EB8000214B03EB80004946204B98476F
S214081650204B1B68E26ADB6A9A4228BF012504E031
S2140816600025DFF890801C4F1C4ED8F80030002B61
S214081670D7D11B4B1B6863B1194B1B687BB1194D3F
S214081680174CA8472368013B23602368002BF8D132
S21408169005E0012D03D0144B1B68012B08D100224E
S2140816A0114B1A60114B9847012402E0002400E011
S2140816B000240F4B98472046BDE8F883F487072098
S2140816C0190A0800290A080004880720FC8607204B
S2140816D031090800DC87072091090800F8860720EA
S2140816E0AC860720C914080008880720090A0800DD
S2140816F0490A0800E087072038B518B91C4B9847F0
S21408170000BFFDE70C46054619B9194B984700BFB8
S214081710FDE7184B98472B881C44A4B2164A128833
S21408172092B2934208D9A3421ED9134B1B889BB288
S2140817302C809C4210D907E0A34213D80E4B1B8876
S2140817409BB29C420ED80FE00C4B186804300C4B2A
S214081750984720460B4B98470B4B984730B90B4B8E
S214081760984738BD2C80EFE72C80F5E738BD00BFDA
S214081770190A080099140800F8870720DC8707204C
S21408178091090800CD110800F5150800090A080097
S21408179080B5154D154EDFF87480154F19E0C04713
S2140817A03468B847ACB1134B9847F368DC68201D1B
S2140817B0114B9847114A1368013B13602B68013B8D
S2140817C02B600F4B9847206BDFF84490C84720469D
S2140817D0C8472B68002BE2D10A4B1B68012BF8D9A7
S2140817E0094B9847D7E700BFCC860720C487072051
S2140817F0F5150800290A080091090800048807203A
S214081800490A0800FC860720090A080099140800F7
S2140818103D0C080010B5224B1B686BB9214B1B68A2
S21408182003EB83039B00204AD358CBB91D4B1B6898
S21408183043B11C4A1C4909E001221C4B1A6010BD22
S21408184013681BB91A4B984700BFFDE71368013B9E
S2140818501360136803EB830351F82330002BEFD093
S214081860104B1B68104A9900C81802EB80004468A1
S2140818706468446002460832944206D1606803EB06
S2140818808301094A02EB8102506003EB8303064A90
S21408189002EB83035B68DA68064B1A6010BD00BF6C
S2140818A0F4870720F8860720FC8607200888072084
S2140818B0190A0800DC87072038B518B90F4B98476F
S2140818C000BFFDE70C460E4D296818310D4B9847AA
S2140818D0286804300C4B98474FF6FF739C4205D196
S2140818E029680A4804310A4B984738BD094B1888B6
S2140818F0204480B2084B984738BD00BF190A080034
S214081900DC8707204D09080091090800B0860720E3
S21408191031090800F8870720CD11080038B518B92E
S2140819200A4B984700BFFDE70D46094C2168183159
S214081930084B984720680430074B9847074B188889
S214081940284480B2064B984738BD00BF190A0800DD
S214081950DC8707203109080091090800F887072066
S214081960CD11080038B5C368DC681CB9164B984713
S21408197000BFFDE704F118052846144B9847144B9A
S2140819801B689BB9251D2846104B9847E06A114BE3
S2140819901B68984284BF0F4B186000EB80000E4B04
S2140819A003EB800029460D4B984703E00C48294670
S2140819B00A4B98470B4B1B68E06ADB6A984234BFB1
S2140819C00020012038BD00BF190A08009109080048
S2140819D0F4870720F8860720FC86072031090800C8
S2140819E0E0870720DC87072008B518B9054B984715
S2140819F000BFFDE7044A12680260044A1288828023
S214081A0008BD00BF190A0800D8870720F8870720EE
S214081A1038B518B91B4B984700BFFDE70D46044676
S214081A2019B9184B984700BFFDE7174B98472B88FE
S214081A304FF6FF7293421BD0144A126821689142EF
S214081A4005D0134A128892B2A188914212D9104A38
S214081A501188A088091A89B28B420DD9128892B2C9
S214081A60121A9B1A2B8020460A4B9847002404E03B
S214081A70002402E0012400E00124074B9847204692
S214081A8038BD00BF190A0800290A0800D8870720A9
S214081A90F8870720E9190800490A08000122014BBF
S214081AA01A60704708880720014B1868704700BFFF
S214081AB0DC870720054B1B6833B1054B1B68002BDA
S214081AC00CBF01200220704700207047C8860720F8
S214081AD0F4870720002831D038B5C36A1849096842
S214081AE0C96A8B4229D216490968C96AC1F10A012E
S214081AF0018303EB8303134901EB8303416999428E
S214081B0017D10546041D20460F4B98470C4B1B68FB
S214081B10D86AE8620D4B1B68984284BF0B4B186066
S214081B2000EB8000074B03EB80002146084B9847E4
S214081B3038BD034B1B68DB6AC36238BD704700BFFD
S214081B40DC870720FC86072091090800F88607200E
S214081B5031090800E8B138B5C16AC26C914217D09D
S214081B600446051D28460B4B9847E06CE062C0F11A
S214081B700A032383084B1B68984284BF064B1860E9
S214081B8000EB8000054B03EB80002946044B984782
S214081B9038BD704791090800F8860720FC8607209C
S214081BA03109080010B504468180206191420BD89F
S214081BB0D21A038B92B2934211D90B4B1868211D87
S214081BC00A4B9847002010BD9A4201D2994208D283
S214081BD0074B1868211D054B9847002010BD0120AB
S214081BE010BD012010BD00BF448807204D0908001D
S214081BF01088072070B50D4B98470D4B1B688BB99E
S214081C000C4D28460C4EB0470C4C2046B0470C4BA3
S214081C101D600C4B1C6005200C2100220A4B9847BF
S214081C20034B1860094B984770BD00BF290A080087
S214081C3040880720148807201109080028880720EC
S214081C4010880720448807200D0E0800490A080057
S214081C5010B584B00B4B98470B4B1B6863B1092330
S214081C6000930023019302930393084808494FF40E
S214081C700072084CA04718B9074B984700BFFDE705
S214081C8004B010BDF51B080040880720AD1D0800ED
S214081C90DC35080029120800190A080010B584B0B7
S214081CA0104C2468D4B10191ADF80820039073B99C
S214081CB00D4B984701280B4B186801A907BFBDF8BC
S214081CC01820002300221346084CA04707E02046A9
S214081CD001A91A460023064CA04700E0002004B0DD
S214081CE010BD00BF40880720B51A0800650E08001A
S214081CF08D0F08002DE9F04782B08146234B9847A0
S214081D008046234B1B88834236D926E0DA68158836
S214081D10ADB2DB68DC6804F1040A5046B847636A6B
S214081D2020469847E369012B19D1238B2B449BB295
S214081D30AB4206D9A380246130685146154B9847B4
S214081D400DE000230093204619462A46124CA04769
S214081D5028B9124B984700BFFDE7114E114F33685C
S214081D601A68002AD2D1104A10680D490860136014
S214081D700123C9F8003002E00023C9F80030044BFC
S214081D80A3F80080404602B0BDE8F087A914080012
S214081D903C8807204D0908009D1C0800190A080001
S214081DA01088072091090800448807202DE9F04389
S214081DB087B0514DDFF87081504B1B681A68002AAF
S214081DC000F09080DB681C88A4B24D4B984703A8A7
S214081DD04C4B98470746039B002B32D1844225D8A4
S214081DE0494B9847454B1B68DB68DE68301DC04783
S214081DF0F369012B15D1318B2144304689B23A4616
S214081E002346424FB84701280BD10023009330469B
S214081E10194622463E4CA04718B93E4B984700BF85
S214081E20FDE7736A304698470DE00024E11B2868F2
S214081E3089B2394B9847344B984720B9374B98475F
S214081E4001E0314B984702A82E4B98470746344E78
S214081E50DFF8B8903EE0059C1CB163690BB1201D05
S214081E60C047039B022B23D0032B30D0002B31D145
S214081E70BDF81030218B1944204689B23A46C84727
S214081E80012827D1636A20469847E369012B21D1A8
S214081E90228BBDF810301A440023009320461946BA
S214081EA092B21B4CA047A8B91A4B984700BFFDE74B
S214081EB0BDF8103023831BB9164B984700BFFDE7C3
S214081EC0F918204689B23A463B46C84702E02046FB
S214081ED0144B9847286803A900221346B0470028E1
S214081EE0B9D169E7064B984703A8064B98470746B3
S214081EF0039B002B99D0A4E740880720108807206A
S214081F0099140800F51C0800F5150800A51B08001C
S214081F109D1C0800190A080081110800090A080013
S214081F201D1008003D0C08009109080010B50E4861
S214081F300E4B984700203E210D4B98470D4CA04766
S214081F400028FCD00C4B98470C4A0D4B9A620D4C57
S214081F50A0470028FCD010200B4B98470B4B9847FF
S214081F600148024B984710BD00BD0105A500072093
S214081F70212308007523080085230800013F0D204B
S214081F8000060E4095230800B9220800AD24080074
S214081F9010B54FF40042124B5A600B20114CA04764
S214081FA00C20A0470D20A0470E20A0473B204FF04E
S214081FB060510D4CA04755204FF06051A047562061
S214081FC04FF06051A04768200849A0475C200849A0
S214081FD0A04708484FF44071074A084B984710BD79
S214081FE0501A0E40A5230800A520080079000028EE
S214081FF001000028000E0E400100000879210800A4
S2140820004264B1F1805F16D004D8C1B1B1F1006F57
S2140820100AD013E0B1F1405F11D0B1F1605F0ED085
S214082020B1F1205F0AD17047036F016F0B4023EAB6
S2140820300203036702E0036F1343036742607047B7
S214082040416412F0010F14BF4166016612F00A0FD0
S21408205014BF0162416212F0020F02D0C0F880106D
S21408206004E012F0080F18BFC0F884104161016040
S214082070704700BF10B44164019C0CB1416600E093
S21408208001660BB1016500E041650AB1016300E035
S2140820904163016101605DF8044B7047C06C70478E
S2140820A0806C704770B582B00D46430903F500137F
S2140820B003F207735C0201F0F043B3F1205F30D0FF
S2140820C006D8B3F1006F0AD0B3F1805F18D049E0A4
S2140820D0B3F1405F30D0B3F1605F2DD042E000F03E
S2140820E01F000126864020464FF0006132461F4BEF
S2140820F0984715F0010F14BF66662666012032E081
S21408210000F01F000126864020464FF080513246D8
S214082110164B984715F0010F14BF66662666012011
S21408212021E000F01F030126204606FA03F12A469E
S2140821300F4B9847304616E000F01F03012605F0BF
S214082140605205EA06010091204606FA03F1B2F14C
S214082150605F14BF00220122C5F38003054CA04728
S214082160304600E0002002B070BD00BF0120080025
S214082170412008007520080070B582B006460D4656
S214082180144602F0F043B3F1205F26D006D8B3F128
S214082190006F0AD0B3F1805F13D034E0B3F1405F2C
S2140821A01FD0B3F1605F1CD02DE04FF000612A46C7
S2140821B0164B984714F0010F14BF75663566012054
S2140821C022E04FF080512A46104B984714F0010F32
S2140821D014BF75663566012016E00D4B984701203A
S2140821E012E004F0605204F00103009330462946DA
S2140821F0B2F1605F14BF00220122C4F38003054CCD
S214082200A047012000E0002002B070BD01200800B1
S21408221041200800752008002DE9F041044688464C
S2140822200E4B9847054620460D4B9847054013D059
S2140822300C4C04F160062368434508D161682942BE
S21408224005D0E36840469847636825EA0305B44224
S21408225002D01034002DEED1BDE8F0819D20080094
S214082260A12008004888072008B502480B21024B21
S214082270984708BD000E0E401922080008B5024807
S2140822800C21024B984708BD00100E401922080082
S21408229008B502480D21024B984708BD00120E40AB
S2140822A01922080008B502480E21024B984708BDB7
S2140822B000140E4019220800184A136B23F0700306
S2140822C018431063936E13F0080F03D009E0013B20
S2140822D003D11EE04FF4006310498A6E12F0080F0F
S2140822E0F5D00E4A136B23F0030343F0020313637F
S2140822F0906E10F0080004D000207047013B03D110
S21408230009E04FF4006305498A6E12F0080FF5D00D
S2140823107047012070470120704700BF00060E4036
S21408232038B111490B6A114A1A40114B13430B6214
S21408233070470D4A136A23F45C1323F0030343F42F
S2140823405C1343F00103090289B20B431362936ED0
S21408235013F0010FFBD0044A136A43F09B7343F44F
S21408236080331362704700BF00060E40FCFFC8FEAD
S21408237002003701024B986E00F48030704700BFA9
S21408238000060E404FF00052014B9A62704700BF9D
S21408239000060E40024B986E00F00200704700BF21
S2140823A000060E402C281ED81F280CD8114B9A69F8
S2140823B0012383401A40934217D0012383400D4AD5
S2140823C01361002070470B4BD3F8082120380123EF
S2140823D083401A4093420AD001238340054AC2F834
S2140823E00031002070470120704700207047002009
S2140823F0704700BF00060E40FEE700BF08B51F4B3B
S2140824001F4A9A4203D01F4B1C4A9A4204D31E4BBB
S2140824101E4A9A4210D31BE018490A1D1C4B9B1AE9
S21408242023F003030433164A134452F8040B41F806
S214082430040B9A42F9D1EAE7164B174AD21A22F049
S21408244003021A44043B002143F8041B9342FBD1C1
S214082450124B23F0604222F07F0211498A6003F192
S2140824606043B3F5801F03D28B6843F000538B603C
S2140824700C4B98470C4B9847FEE700BF0000072018
S2140824803C37080078050720B88807207805072015
S2140824907B0507207C050720BB880720000008006E
S2140824A000ED00E061300800750508003E4B1B6B28
S2140824B003F00303032B5FD8DFE803F0020E2B2B91
S2140824C03A4B5B6913F0800F14BF4FF400424FF489
S2140824D0FA42374B1A604FE0334B1B6A13F0807F83
S2140824E003D0344A324B1A6046E0334A304B1A60FF
S2140824F02D4B1B6A03F07003102B02D0202B04D040
S2140825003AE02E4A2A4B1A6036E02A4A284B1A60C6
S21408251032E0254B1B6A13F0807F03D0254A244BF4
S2140825201A6012E0244A224B1A601F4B1B6A03F0FB
S2140825307003102B02D0202B04D006E01F4A1C4B39
S2140825401A6002E01B4A1A4B1A60174B1B6B03F003
S2140825500303022B0DD1144A936A926A1448C3F3F4
S2140825600A41036801FB0333D2B2B3FBF2F30360FC
S21408257002E0134A0E4B1A600B4B1B6B03F07003FA
S214082580702B07D10A4A13680E49A1FB03135B0890
S21408259013607047044B1A6B0549C2F302120B68A6
S2140825A0D3400B60704700BF00060E40101A0E405E
S2140825B044010720001BB70000093D0000127A00FE
S2140825C0001C4E0EABAAAAAA81F0004102E000BF8A
S2140825D083F0004330B54FEA41044FEA430594EAD6
S2140825E0050F08BF90EA020F1FBF54EA000C55EA11
S2140825F0020C7FEA645C7FEA655C00F0E2804FEAE2
S2140826005454D4EB5555B8BF6D420CDD2C4480EAC3
S214082610020281EA030382EA000083EA010180EAF3
S214082620020281EA0303362D88BF30BD11F0004F41
S2140826304FEA01314FF4801C4CEA113102D0404277
S21408264061EB410113F0004F4FEA03334CEA1333B2
S21408265002D0524263EB430394EA050F00F0A780CA
S214082660A4F10104D5F1200E0DDB02FA0EFC22FAC5
S21408267005F2801841F1000103FA0EF2801843FAB9
S21408268005F359410EE0A5F120050EF1200E012AAA
S21408269003FA0EFC28BF4CF0020C43FA05F3C018E8
S2140826A051EBE37101F0004507D54FF0000EDCF161
S2140826B0000C7EEB00006EEB0101B1F5801F1BD30A
S2140826C0B1F5001F0CD349085FEA30004FEA3C0C0E
S2140826D004F101044FEA445212F5800F80F09A8004
S2140826E0BCF1004F08BF5FEA500C50F1000041EB08
S2140826F0045141EA050130BD5FEA4C0C404141EB0C
S214082700010111F4801FA4F10104E9D191F0000F32
S21408271004BF01460020B1FA81F308BF2033A3F1B5
S2140827200B03B3F120020CDA0C3208DD02F1140CAC
S214082730C2F10C0201FA0CF021FA02F10CE002F1E7
S2140827401402D8BFC2F1200C01FA02F120FA0CFCE0
S214082750DCBF41EA0C019040E41AA2BF01EB045129
S214082760294330BD6FEA04041F3C1CDA0C340EDC27
S21408277004F11404C4F1200220FA04F001FA02F36A
S21408278040EA030021FA04F345EA030130BDC4F128
S2140827900C04C4F1200220FA02F001FA04F340EA1D
S2140827A00300294630BD21FA04F0294630BD94F0CE
S2140827B0000F83F4801306BF81F480110134013DB5
S2140827C04EE77FEA645C18BF7FEA655C29D094EA26
S2140827D0050F08BF90EA020F05D054EA000C04BFA4
S2140827E01946104630BD91EA030F1EBF002100208F
S2140827F030BD5FEA545C05D14000494128BF41F02E
S214082800004130BD14F580043CBF01F5801130BD91
S21408281001F0004545F0FE4141F470014FF000001C
S21408282030BD7FEA645C1ABF194610467FEA655CCD
S2140828301CBF0B46024650EA013406BF52EA03356F
S21408284091EA030F41F4002130BD00BF90F0000F5D
S21408285004BF0021704730B54FF4806404F1320499
S2140828604FF000054FF0000150E700BF90F0000F52
S21408287004BF0021704730B54FF4806404F1320479
S21408288010F0004548BF40424FF000013EE700BF49
S21408289042004FEAE2014FEA31014FEA02701FBFD9
S2140828A012F07F4393F07F4F81F06051704792F0AB
S2140828B0000F14BF93F07F4F704730B54FF4607425
S2140828C001F0004521F0004120E700BF50EA010270
S2140828D008BF704730B54FF000050AE050EA01021D
S2140828E008BF704730B511F0004502D5404261EB8D
S2140828F041014FF4806404F132045FEA915C3FF4CE
S214082900DCAE4FF003025FEADC0C18BF03325FEA66
S214082910DC0C18BF033202EBDC02C2F1200300FA1B
S21408292003FC20FA02F001FA03FE40EA0E0021FA40
S21408293002F11444C1E600BF70B54FF0FF0C4CF42A
S214082940E06C1CEA11541DBF1CEA135594EA0C0FE0
S21408295095EA0C0F00F0DEF82C4481EA030621EA1B
S2140829604C5123EA4C5350EA013518BF52EA033556
S21408297041F4801143F4801338D0A0FB02CE4FF008
S2140829800005E1FB02E506F00042E0FB03E54FF038
S2140829900006E1FB03569CF0000F18BF4EF0010E30
S2140829A0A4F1FF04B6F5007F64F5407404D25FEA2C
S2140829B04E0E6D4146EB060642EAC62141EA5551DF
S2140829C04FEAC52040EA5E504FEACE2EB4F1FD0C21
S2140829D088BFBCF5E06F1ED8BEF1004F08BF5FEA9F
S2140829E0500E50F1000041EB045170BD06F0004651
S2140829F046EA010140EA020081EA0301B4EB5C04FE
S214082A00C2BFD4EB0C0541EA045170BD41F48011F5
S214082A104FF0000E013C00F3AB8014F1360FDEBF1A
S214082A20002001F0004170BDC4F10004203C35DAF6
S214082A300C341BDC04F11404C4F1200500FA05F379
S214082A4020FA04F001FA05F240EA020001F000421A
S214082A5021F0004110EBD37021FA04F642EB060190
S214082A605EEA430E08BF20EAD37070BDC4F10C04BA
S214082A70C4F1200500FA04F320FA05F001FA04F27E
S214082A8040EA020001F0004110EBD37041F100016A
S214082A905EEA430E08BF20EAD37070BDC4F1200575
S214082AA000FA05F24EEA020E20FA04F301FA05F2DD
S214082AB043EA020321FA04F001F0004121FA04F285
S214082AC020EA020000EBD3705EEA430E08BF20EA55
S214082AD0D37070BD94F0000F0FD101F0004640008F
S214082AE041EB010111F4801F08BF013CF7D041EA11
S214082AF0060195F0000F18BF704703F00046520015
S214082B0043EB030313F4801F08BF013DF7D043EAE5
S214082B100603704794EA0C0F0CEA135518BF95EA9B
S214082B200C0F0CD050EA410618BF52EA4306D1D122
S214082B3081EA030101F000414FF0000070BD50EA41
S214082B40410606BF1046194652EA430619D094EACB
S214082B500C0F02D150EA013613D195EA0C0F05D1B5
S214082B6052EA03361CBF104619460AD181EA030109
S214082B7001F0004141F0FE4141F470014FF00000C1
S214082B8070BD41F0FE4141F4780170BD70B54FF05C
S214082B90FF0C4CF4E06C1CEA11541DBF1CEA1355DC
S214082BA094EA0C0F95EA0C0F00F0A7F8A4EB0504BE
S214082BB081EA030E52EA03354FEA013100F08880B5
S214082BC04FEA03334FF0805545EA131343EA12637E
S214082BD04FEA022245EA111545EA10654FEA002633
S214082BE00EF000419D4208BF964244F1FD0404F5EC
S214082BF0407402D25B084FEA3202B61A65EB030548
S214082C005B084FEA32024FF480104FF4002CB6EB04
S214082C10020E75EB030E22BFB61A754640EA0C0084
S214082C205B084FEA3202B6EB020E75EB030E22BFC4
S214082C30B61A754640EA5C005B084FEA3202B6EB05
S214082C40020E75EB030E22BFB61A754640EA9C00C4
S214082C505B084FEA3202B6EB020E75EB030E22BF94
S214082C60B61A754640EADC0055EA060E18D04FEA52
S214082C70051545EA16754FEA06164FEAC30343EAF2
S214082C8052734FEAC2025FEA1C1CC0D111F4801FBF
S214082C900BD141EA00014FF000004FF0004CB6E7B8
S214082CA011F4801F04BF01430020B4F1FD0C88BF57
S214082CB0BCF5E06F3FF6AFAEB5EB030C04BFB6EB62
S214082CC0020C5FEA500C50F1000041EB045170BD55
S214082CD00EF0004E4EEA113114EB5C04C2BFD4EB82
S214082CE00C0541EA045170BD41F480114FF0000E06
S214082CF0013C90E645EA060E8DE60CEA135594EA82
S214082D000C0F08BF95EA0C0F3FF43BAF94EA0C0F84
S214082D100AD150EA01347FF434AF95EA0C0F7FF4F9
S214082D2025AF104619462CE795EA0C0F06D152EA4D
S214082D3003353FF4FDAE1046194622E750EA410631
S214082D4018BF52EA43067FF4C5AE50EA41047FF442
S214082D500DAF52EA43057FF4EBAE12E74FEA4102A5
S214082D60B2F1E04324BFB3F5001CDCF1FE5C0DD9DC
S214082D7001F0004C4FEAC0024CEA5070B2F1004F26
S214082D8040EB830008BF20F00100704711F0804F29
S214082D9021D113F13872BCBF01F00040704741F4EE
S214082DA080114FEA5252C2F11802C2F1200C10FAF2
S214082DB00CF320FA02F018BF40F001004FEAC123D6
S214082DC04FEAD32303FA0CFC40EA0C0023FA02F37A
S214082DD04FEA4303CCE77FEA625307D150EA013350
S214082DE01EBF4FF0FE4040F44000704701F0004020
S214082DF040F0FE4040F40000704700BF80F00040FE
S214082E0002E000BF81F0004142001FBF5FEA4103B5
S214082E1092EA030F7FEA226C7FEA236C6AD04FEAB5
S214082E201262D2EB1363C1BFD218414048404140FA
S214082E30B8BF5B42192B88BF704710F0004F40F4AC
S214082E40000020F07F4018BF404211F0004F41F4C8
S214082E50000121F07F4118BF494292EA030F3FD094
S214082E60A2F1010241FA03FC10EB0C00C3F12003A7
S214082E7001FA03F100F0004302D5494260EB400036
S214082E80B0F5000F13D3B0F1807F06D340084FEAA1
S214082E90310102F10102FE2A51D2B1F1004F40EB96
S214082EA0C25008BF20F0010040EA030070474900FE
S214082EB040EB000010F4000FA2F10102EDD1B0FAC9
S214082EC080FCACF1080CB2EB0C0200FA0CF0AABFBE
S214082ED000EBC25052421843BCBFD040184370475C
S214082EE092F0000F81F4000106BF80F40000013262
S214082EF0013BB5E74FEA41037FEA226C18BF7FEA39
S214082F00236C21D092EA030F04D092F0000F08BF7A
S214082F100846704790EA010F1CBF0020704712F061
S214082F207F4F04D1400028BF40F00040704712F1A0
S214082F3000723CBF00F50000704700F0004343F005
S214082F40FE4040F4000070477FEA226216BF08463B
S214082F507FEA23630146420206BF5FEA412390EAFE
S214082F60010F40F4800070474FF0000304E000BFF4
S214082F7010F0004348BF40425FEA000C08BF7047A5
S214082F8043F0964301464FF000001CE050EA010269
S214082F9008BF70474FF000030AE000BF50EA01027E
S214082FA008BF704711F0004302D5404261EB41016B
S214082FB05FEA010C02BF84460146002043F0B64390
S214082FC008BFA3F18053A3F50003BCFA8CF2083AB5
S214082FD0A3EBC25310DB01FA02FC634400FA02FCBE
S214082FE0C2F12002BCF1004F20FA02F243EB0200C5
S214082FF008BF20F00100704702F1200201FA02FC27
S214083000C2F1200250EA4C0021FA02F243EB020019
S21408301008BF20EADC70704742000ED2B2F1FE4FBD
S2140830200BD34FF09E03B3EB126209D44FEA00238A
S21408303043F0004323FA02F070474FF00000704751
S21408304012F1610F01D1420202D14FF0FF307047F2
S2140830504FF00000704700BF00210A2200F0C8B9F0
S21408306070B50F4E0F4D761BB61018BF002405D04E
S214083070013455F8043B9847A642F9D10A4E0B4D41
S21408308000F04AFB761BB61018BF002406D00134A1
S21408309055F8043B9847A642F9D170BD70BD00BFED
S2140830A024370800243708002C370800243708007F
S2140830B0931E222B10D80A2A10B506D000230C46D9
S2140830C0194400F0A1F9204610BD0028F6DA2D2391
S2140830D00B7040420123F2E700200870704700BFDB
S2140830E0FFF7E6BF844641EA000313F0030349D11D
S2140830F0403A23D30B6803604B6843608B68836051
S214083100CB68C3600B6903614B6943618B69836154
S214083110CB69C3610B6A03624B6A43628B6A83623C
S214083120CB6AC3620B6B03634B6B43638B6B836324
S214083130CB6BC36340304031403ADBD230320BD3DE
S2140831400B6803604B6843608B688360CB68C3601A
S21408315010301031103AF3D20C3205D351F8043B34
S21408316040F8043B043AF9D2043208D0D2071CBF10
S21408317011F8013B00F8013B01D30B880380604639
S214083180704700BF082A13D38B07B1D010F003038B
S214083190AED0C3F10403D21ADB071CBF11F8013BFB
S2140831A000F8013BA4D331F8023B20F8023B9FE726
S2140831B0043AD9D3013A11F8013B00F8013BF9D299
S2140831C00B7803704B7843708B7883706046704733
S2140831D070B4840746D0541E002A41D0CDB20346A8
S2140831E002E0621EE4B3144603F8015B9A07F8D1BE
S2140831F0032C2ED9CDB245EA05250F2C45EA054500
S21408320019D9264603F11002103E0F2E42F8105C1C
S21408321042F80C5C42F8085C42F8045C02F11002C2
S214083220F2D8A4F1100222F00F0204F00F041032B4
S214083230032C13440DD91E462246043A032A46F8A0
S214083240045BFAD8221F22F003020432134404F067
S21408325003042CB1C9B21C4403F8011BA342FBD1DA
S21408326070BC704714460346C2E700BF40EA010335
S2140832709B0770B42BD1032A29D90C46034621464E
S21408328054F8046BA6F1013525EA060515F0803FCB
S21408329005D1043A032A43F8046B2146EFD8A2B1B5
S2140832A00C78013A1C70013101333CB16AB111F84F
S2140832B0014B013A03F8014B002CF7D12AB11A4406
S2140832C0002103F8011B9342FBD170BC70470346EC
S2140832D0E5E700BF2DE9F04F444C83460E46D4F888
S2140832E000E000E02646344614F8015B0EEB0500C5
S2140832F0407800F0080000F0FF080028F2D12D2DD5
S2140833004BD02B2D04BF7578B41C1BB1102B60D086
S2140833109A4603E0302D54D00A239A46B8F1000F97
S21408332014BF4FF000406FF00040B0FBFAF90027DA
S214083330BC460AFB19000CE0303DAB4219DD7E1C8A
S21408334005D0CC4524D821D00AFB0C5C012714F8FC
S214083350015B0EEB0506767816F0040FECD116F036
S214083360030606D0012E0CBF37265726AD1BAB42E8
S214083370E5DC7B1C16D0C8F100008CEA000040444F
S2140833804AB107B1611E1160BDE8F08F8542DBDDEA
S2140833904FF0FF37DBE7BDE8F08FB41C75784FF0C9
S2140833A00108B2E7B8F1000F4FF0220314BF4FF040
S2140833B000406FF00040CBF80030002AE2D1BDE8AC
S2140833C0F08F237803F0DF03582B09D008239A469A
S2140833D0A4E7302D9CD1207800F0DF00582897D13C
S2140833E04FF0100A65785346023497E774050720AD
S2140833F030B40D46034C134601462A46206830BCB6
S214083400FFF768BF70050720F0B58BB06F46154606
S214083410DFF870E004460E46BEE80F000FC7BEE8A9
S2140834200F000FC79EE80300AB1E47F8040B222BBD
S214083430397022D8711E0846002300E01346B4FBF4
S214083440F5F205FB12440AAF3C4414F8287C1446EF
S21408345000F8017F5A1C002CF0D1B454F2184BB176
S214083460013411F8015F1778181B84420F7002F8B0
S2140834700159F5DB30460BB0F0BD002030700BB0BC
S214083480F0BD00BFEC350800024B13B1024800F04F
S21408349005B8704700000000A9340800014600205F
S2140834A00246034600F016B838B5084B084DED1A24
S2140834B0AC1018BFED1805D0013C55F8043D9847E8
S2140834C0002CF9D1BDE8384000F030B9383708008C
S2140834D03C3708002DE9F047254C064625688846FF
S2140834E0D5F8484192469946C4B360681F2817DC49
S2140834F0411C76B104EB8003C3F888A0D4F8885141
S214083500012282401543022EC4F88851C3F8089158
S2140835101ED0831C6160002044F82380BDE8F08735
S214083520144B03B34FF4C870AFF300800446D0B111
S214083530D5F84831002784E888003846C5F8484159
S2140835400121C4F88871C4F88C71002EE1D0D1E747
S214083550D4F88C311A43C4F88C21DAE705F5A6743A
S214083560C5F84841C1E74FF0FF30BDE8F08700BF17
S214083570E835080000000000010000000200000016
S21408358004000000080000001000000020000000F2
S214083590400000008000000000010000000200005B
S2140835A00004000049646C6500000000436F6D006D
S2140835B0526567756C61746500000000257309091B
S2140835C025630925750925750925750D0A00000066
S2140835D049444C45000000000D0A0000546D722056
S2140835E05376630043000000480107203031323329
S2140835F03435363738396162636465666768696A80
S2140836006B6C6D6E6F707172737475767778797A85
S214083610000000000020202020202020202028282D
S2140836202828282020202020202020202020202075
S21408363020202020208810101010101010101010B5
S21408364010101010100404040404040404040410E5
S2140836501010101010104141414141410101010173
S214083660010101010101010101010101010101013D
S2140836701010101010104242424242420202020249
S214083680020202020202020202020202020202020D
S21408369010101010200000000000000000000000BD
S2140836A0000000000000000000000000000000000D
S2140836B000000000000000000000000000000000FD
S2140836C000000000000000000000000000000000ED
S2140836D000000000000000000000000000000000DD
S2140836E000000000000000000000000000000000CD
S2140836F000000000000000000000000000000000BD
S21408370000000000000000000000000000000000AC
S2140837100000000000000000F8B500BFF8BC08BCB8
S2140837209E4670478934080019010800F8B500BF9E
S210083730F8BC08BC9E467047F500080070
S21408373C4FF48063204A136002F5007213601F4B27
S21408374C1B6A13F0807F07D11D4A1C4B1A621A4657
S21408375C936E13F0010FFBD01A4A184B1A621A46CE
S21408376C936E13F4803FFBD0144A136B23F00303B9
S21408377C43F001031363936E13F0080FFBD0124A41
S21408378C0E4B9A621A46936E13F0020FFBD0112258
S21408379C0A4B1A631A46936E13F0080FFBD01222C4
S2140837AC064B1A631A46936E13F0080FFBD0074A9B
S2140837BC074B1A60704700BF000A0E4000060E4002
S2140837CC0908370009083701013F0D2000BD01051F
S2140837DC440107201B4B984206D800231A4A13604C
S2140837EC02F5007213607047184B984207D84FF4CE
S2140837FC8073154A136002F5007213607047144BF9
S21408380C984207D84FF400730F4A136002F50072FB
S21408381C136070470F4B984207D84FF440730A4A08
S21408382C136002F50072136070470B4B984294BFF6
S21408383C4FF480634FF4A063034A136002F50072DA
S21408384C13607047BFEA2101000A0E407FF0FA02A7
S21408385CFF8FD003FFB3C4047F4A5D059405072089
S21408386C0100000032000000AAAAAAAA00800000E4
S21408387CFFFF000000093D0000000000340407208C
S21408388C9C04072004050720000000000000000028
S21408389C000000000000000000000000000000000F
S2140838AC000000000000000000000000E4350800DE
S2140838BC00000000000000000000000000000000EF
S2140838CC00000000000000000000000000000000DF
S2140838DC00000000000000000000000000000000CF
S2140838EC00000000000000000000000000000000BF
S2140838FC00000000000000000000000000000000AF
S21408390C000000000000000000000000000000009E
S21408391C000000000000000000000000000000008E
S21408392C01000000000000000E33CDAB34126DE62B
S21408393CECDE05000B000000000000000000000094
S21408394C000000000000000000000000000000005E
S21408395C000000000000000000000000000000004E
S21408396C000000000000000000000000000000003E
S21408397C000000000000000000000000000000002E
S20C083CAC480107201436080041
S8040823FDD3
